{
  "contractName": "WheresMyNFT",
  "abi": [
    {
      "inputs": [
        {
          "internalType": "address",
          "name": "serverAddress",
          "type": "address"
        }
      ],
      "stateMutability": "nonpayable",
      "type": "constructor"
    },
    {
      "anonymous": false,
      "inputs": [
        {
          "indexed": true,
          "internalType": "address",
          "name": "owner",
          "type": "address"
        },
        {
          "indexed": true,
          "internalType": "address",
          "name": "approved",
          "type": "address"
        },
        {
          "indexed": true,
          "internalType": "uint256",
          "name": "tokenId",
          "type": "uint256"
        }
      ],
      "name": "Approval",
      "type": "event"
    },
    {
      "anonymous": false,
      "inputs": [
        {
          "indexed": true,
          "internalType": "address",
          "name": "owner",
          "type": "address"
        },
        {
          "indexed": true,
          "internalType": "address",
          "name": "operator",
          "type": "address"
        },
        {
          "indexed": false,
          "internalType": "bool",
          "name": "approved",
          "type": "bool"
        }
      ],
      "name": "ApprovalForAll",
      "type": "event"
    },
    {
      "anonymous": false,
      "inputs": [
        {
          "indexed": true,
          "internalType": "address",
          "name": "owner",
          "type": "address"
        }
      ],
      "name": "FoundLostDevice",
      "type": "event"
    },
    {
      "anonymous": false,
      "inputs": [
        {
          "indexed": true,
          "internalType": "bytes32",
          "name": "role",
          "type": "bytes32"
        },
        {
          "indexed": true,
          "internalType": "bytes32",
          "name": "previousAdminRole",
          "type": "bytes32"
        },
        {
          "indexed": true,
          "internalType": "bytes32",
          "name": "newAdminRole",
          "type": "bytes32"
        }
      ],
      "name": "RoleAdminChanged",
      "type": "event"
    },
    {
      "anonymous": false,
      "inputs": [
        {
          "indexed": true,
          "internalType": "bytes32",
          "name": "role",
          "type": "bytes32"
        },
        {
          "indexed": true,
          "internalType": "address",
          "name": "account",
          "type": "address"
        },
        {
          "indexed": true,
          "internalType": "address",
          "name": "sender",
          "type": "address"
        }
      ],
      "name": "RoleGranted",
      "type": "event"
    },
    {
      "anonymous": false,
      "inputs": [
        {
          "indexed": true,
          "internalType": "bytes32",
          "name": "role",
          "type": "bytes32"
        },
        {
          "indexed": true,
          "internalType": "address",
          "name": "account",
          "type": "address"
        },
        {
          "indexed": true,
          "internalType": "address",
          "name": "sender",
          "type": "address"
        }
      ],
      "name": "RoleRevoked",
      "type": "event"
    },
    {
      "anonymous": false,
      "inputs": [
        {
          "indexed": true,
          "internalType": "address",
          "name": "from",
          "type": "address"
        },
        {
          "indexed": true,
          "internalType": "address",
          "name": "to",
          "type": "address"
        },
        {
          "indexed": true,
          "internalType": "uint256",
          "name": "tokenId",
          "type": "uint256"
        }
      ],
      "name": "Transfer",
      "type": "event"
    },
    {
      "inputs": [],
      "name": "DEFAULT_ADMIN_ROLE",
      "outputs": [
        {
          "internalType": "bytes32",
          "name": "",
          "type": "bytes32"
        }
      ],
      "stateMutability": "view",
      "type": "function"
    },
    {
      "inputs": [],
      "name": "SERVER_ROLE",
      "outputs": [
        {
          "internalType": "bytes32",
          "name": "",
          "type": "bytes32"
        }
      ],
      "stateMutability": "view",
      "type": "function"
    },
    {
      "inputs": [
        {
          "internalType": "address",
          "name": "to",
          "type": "address"
        },
        {
          "internalType": "uint256",
          "name": "tokenId",
          "type": "uint256"
        }
      ],
      "name": "approve",
      "outputs": [],
      "stateMutability": "nonpayable",
      "type": "function"
    },
    {
      "inputs": [
        {
          "internalType": "address",
          "name": "owner",
          "type": "address"
        }
      ],
      "name": "balanceOf",
      "outputs": [
        {
          "internalType": "uint256",
          "name": "",
          "type": "uint256"
        }
      ],
      "stateMutability": "view",
      "type": "function"
    },
    {
      "inputs": [
        {
          "internalType": "uint256",
          "name": "tokenId",
          "type": "uint256"
        }
      ],
      "name": "getApproved",
      "outputs": [
        {
          "internalType": "address",
          "name": "",
          "type": "address"
        }
      ],
      "stateMutability": "view",
      "type": "function"
    },
    {
      "inputs": [
        {
          "internalType": "bytes32",
          "name": "role",
          "type": "bytes32"
        }
      ],
      "name": "getRoleAdmin",
      "outputs": [
        {
          "internalType": "bytes32",
          "name": "",
          "type": "bytes32"
        }
      ],
      "stateMutability": "view",
      "type": "function"
    },
    {
      "inputs": [
        {
          "internalType": "bytes32",
          "name": "role",
          "type": "bytes32"
        },
        {
          "internalType": "address",
          "name": "account",
          "type": "address"
        }
      ],
      "name": "grantRole",
      "outputs": [],
      "stateMutability": "nonpayable",
      "type": "function"
    },
    {
      "inputs": [
        {
          "internalType": "bytes32",
          "name": "role",
          "type": "bytes32"
        },
        {
          "internalType": "address",
          "name": "account",
          "type": "address"
        }
      ],
      "name": "hasRole",
      "outputs": [
        {
          "internalType": "bool",
          "name": "",
          "type": "bool"
        }
      ],
      "stateMutability": "view",
      "type": "function"
    },
    {
      "inputs": [
        {
          "internalType": "address",
          "name": "owner",
          "type": "address"
        },
        {
          "internalType": "address",
          "name": "operator",
          "type": "address"
        }
      ],
      "name": "isApprovedForAll",
      "outputs": [
        {
          "internalType": "bool",
          "name": "",
          "type": "bool"
        }
      ],
      "stateMutability": "view",
      "type": "function"
    },
    {
      "inputs": [],
      "name": "name",
      "outputs": [
        {
          "internalType": "string",
          "name": "",
          "type": "string"
        }
      ],
      "stateMutability": "view",
      "type": "function"
    },
    {
      "inputs": [
        {
          "internalType": "uint256",
          "name": "tokenId",
          "type": "uint256"
        }
      ],
      "name": "ownerOf",
      "outputs": [
        {
          "internalType": "address",
          "name": "",
          "type": "address"
        }
      ],
      "stateMutability": "view",
      "type": "function"
    },
    {
      "inputs": [
        {
          "internalType": "bytes32",
          "name": "role",
          "type": "bytes32"
        },
        {
          "internalType": "address",
          "name": "account",
          "type": "address"
        }
      ],
      "name": "renounceRole",
      "outputs": [],
      "stateMutability": "nonpayable",
      "type": "function"
    },
    {
      "inputs": [
        {
          "internalType": "bytes32",
          "name": "role",
          "type": "bytes32"
        },
        {
          "internalType": "address",
          "name": "account",
          "type": "address"
        }
      ],
      "name": "revokeRole",
      "outputs": [],
      "stateMutability": "nonpayable",
      "type": "function"
    },
    {
      "inputs": [
        {
          "internalType": "address",
          "name": "from",
          "type": "address"
        },
        {
          "internalType": "address",
          "name": "to",
          "type": "address"
        },
        {
          "internalType": "uint256",
          "name": "tokenId",
          "type": "uint256"
        }
      ],
      "name": "safeTransferFrom",
      "outputs": [],
      "stateMutability": "nonpayable",
      "type": "function"
    },
    {
      "inputs": [
        {
          "internalType": "address",
          "name": "from",
          "type": "address"
        },
        {
          "internalType": "address",
          "name": "to",
          "type": "address"
        },
        {
          "internalType": "uint256",
          "name": "tokenId",
          "type": "uint256"
        },
        {
          "internalType": "bytes",
          "name": "data",
          "type": "bytes"
        }
      ],
      "name": "safeTransferFrom",
      "outputs": [],
      "stateMutability": "nonpayable",
      "type": "function"
    },
    {
      "inputs": [
        {
          "internalType": "address",
          "name": "operator",
          "type": "address"
        },
        {
          "internalType": "bool",
          "name": "approved",
          "type": "bool"
        }
      ],
      "name": "setApprovalForAll",
      "outputs": [],
      "stateMutability": "nonpayable",
      "type": "function"
    },
    {
      "inputs": [],
      "name": "symbol",
      "outputs": [
        {
          "internalType": "string",
          "name": "",
          "type": "string"
        }
      ],
      "stateMutability": "view",
      "type": "function"
    },
    {
      "inputs": [
        {
          "internalType": "uint256",
          "name": "tokenId",
          "type": "uint256"
        }
      ],
      "name": "tokenURI",
      "outputs": [
        {
          "internalType": "string",
          "name": "",
          "type": "string"
        }
      ],
      "stateMutability": "view",
      "type": "function"
    },
    {
      "inputs": [
        {
          "internalType": "address",
          "name": "from",
          "type": "address"
        },
        {
          "internalType": "address",
          "name": "to",
          "type": "address"
        },
        {
          "internalType": "uint256",
          "name": "tokenId",
          "type": "uint256"
        }
      ],
      "name": "transferFrom",
      "outputs": [],
      "stateMutability": "nonpayable",
      "type": "function"
    },
    {
      "inputs": [
        {
          "internalType": "string",
          "name": "_deviceHash",
          "type": "string"
        },
        {
          "internalType": "string",
          "name": "_locationCode",
          "type": "string"
        },
        {
          "internalType": "uint256",
          "name": "_timestamp",
          "type": "uint256"
        }
      ],
      "name": "mint",
      "outputs": [],
      "stateMutability": "nonpayable",
      "type": "function"
    },
    {
      "inputs": [
        {
          "internalType": "string",
          "name": "_deviceHash",
          "type": "string"
        },
        {
          "internalType": "uint256",
          "name": "_lostTimestamp",
          "type": "uint256"
        }
      ],
      "name": "reportLost",
      "outputs": [],
      "stateMutability": "nonpayable",
      "type": "function"
    },
    {
      "inputs": [
        {
          "internalType": "string",
          "name": "_deviceHash",
          "type": "string"
        }
      ],
      "name": "reportFound",
      "outputs": [],
      "stateMutability": "nonpayable",
      "type": "function"
    },
    {
      "inputs": [
        {
          "internalType": "string",
          "name": "_deviceHash",
          "type": "string"
        },
        {
          "internalType": "string",
          "name": "_locationCode",
          "type": "string"
        },
        {
          "internalType": "uint256",
          "name": "_timestamp",
          "type": "uint256"
        }
      ],
      "name": "foundDevicePing",
      "outputs": [],
      "stateMutability": "nonpayable",
      "type": "function"
    },
    {
      "inputs": [
        {
          "internalType": "string",
          "name": "_deviceHash",
          "type": "string"
        }
      ],
      "name": "getLatestDeviceLocation",
      "outputs": [
        {
          "internalType": "uint256",
          "name": "",
          "type": "uint256"
        },
        {
          "internalType": "string",
          "name": "",
          "type": "string"
        }
      ],
      "stateMutability": "view",
      "type": "function"
    },
    {
      "inputs": [
        {
          "internalType": "string",
          "name": "_deviceHash",
          "type": "string"
        }
      ],
      "name": "getLocationHistory",
      "outputs": [
        {
          "components": [
            {
              "internalType": "uint256",
              "name": "timestamp",
              "type": "uint256"
            },
            {
              "internalType": "string",
              "name": "locationCode",
              "type": "string"
            }
          ],
          "internalType": "struct WheresMyNFT.LocationData[]",
          "name": "",
          "type": "tuple[]"
        }
      ],
      "stateMutability": "view",
      "type": "function"
    },
    {
      "inputs": [
        {
          "internalType": "bytes4",
          "name": "interfaceId",
          "type": "bytes4"
        }
      ],
      "name": "supportsInterface",
      "outputs": [
        {
          "internalType": "bool",
          "name": "",
          "type": "bool"
        }
      ],
      "stateMutability": "view",
      "type": "function"
    }
  ],
  "bytecode": "0x60806040523480156200001157600080fd5b50604051620033d8380380620033d88339810160408190526200003491620008cb565b604080518082018252600b81526a15da195c995cd35e53919560aa1b60208083019182528351808501909452600584526415d353919560da1b908401528151919291620000849160009162000825565b5080516200009a90600190602084019062000825565b50620000ac9150600090503362000125565b620000d87fa8a7bc421f721cb936ea99efdad79237e6ee0b871a2a08cf648691f9584cdc778262000125565b6200011e604051806040016040528060018152602001600360fc1b815250604051806040016040528060018152602001600360fc1b8152506000620001ca60201b60201c565b5062000a55565b60008281526006602090815260408083206001600160a01b038516845290915290205460ff16620001c65760008281526006602090815260408083206001600160a01b03851684529091529020805460ff19166001179055620001853390565b6001600160a01b0316816001600160a01b0316837f2f8788117e7eff1d82e926ec794901d17c78024a50270940304540a733656f0d60405160405180910390a45b5050565b600a600084604051602001620001e191906200094d565b604051602081830303815290604052805190602001208152602001908152602001600020546000146200025b5760405162461bcd60e51b815260206004820152601560248201527f44657669636520616c726561647920657869737473000000000000000000000060448201526064015b60405180910390fd5b6008546040518190600a90600090620002799088906020016200094d565b60408051808303601f190181529181528151602092830120835282820193909352908201600090812093909355600880546001808201909255835180850190945286845283830188815260069091027ff3f7a9fe364faab93b216da50a3214154f22a0a2b415b23a84c8169e8b636ee4810180548085018255908752958490208551600290970201958655905180517ff3f7a9fe364faab93b216da50a3214154f22a0a2b415b23a84c8169e8b636ee390920195936200033f9385019291019062000825565b505081546001600160a01b0319163317825550600281018290556040516200036c9086906020016200094d565b60408051601f198184030181529190528051602090910120600382015560048101805460ff191690556000600582018190556009805460018101825591527f6e1540171b6c0c960b71a7020d9f60077f6af931a8bbf590da0223dacf75c7af01829055620003db3383620003e2565b5050505050565b620001c68282604051806020016040528060008152506200040460201b60201c565b6200041083836200047c565b6200041f60008484846200061d565b620004775760405162461bcd60e51b81526020600482015260326024820152600080516020620033b883398151915260448201527131b2b4bb32b91034b6b83632b6b2b73a32b960711b606482015260840162000252565b505050565b6001600160a01b038216620004d45760405162461bcd60e51b815260206004820181905260248201527f4552433732313a206d696e7420746f20746865207a65726f2061646472657373604482015260640162000252565b6000818152600260205260409020546001600160a01b0316156200053b5760405162461bcd60e51b815260206004820152601c60248201527f4552433732313a20746f6b656e20616c7265616479206d696e74656400000000604482015260640162000252565b6200054b60008383600162000786565b6000818152600260205260409020546001600160a01b031615620005b25760405162461bcd60e51b815260206004820152601c60248201527f4552433732313a20746f6b656e20616c7265616479206d696e74656400000000604482015260640162000252565b6001600160a01b038216600081815260036020908152604080832080546001019055848352600290915280822080546001600160a01b0319168417905551839291907fddf252ad1be2c89b69c2b068fc378daa952ba7f163c4a11628f55a4df523b3ef908290a45050565b60006200063e846001600160a01b03166200081660201b620014ab1760201c565b156200077a57604051630a85bd0160e11b81526001600160a01b0385169063150b7a02906200067890339089908890889060040162000962565b602060405180830381600087803b1580156200069357600080fd5b505af1925050508015620006c6575060408051601f3d908101601f19168201909252620006c391810190620009a1565b60015b6200075f573d808015620006f7576040519150601f19603f3d011682016040523d82523d6000602084013e620006fc565b606091505b508051620007575760405162461bcd60e51b81526020600482015260326024820152600080516020620033b883398151915260448201527131b2b4bb32b91034b6b83632b6b2b73a32b960711b606482015260840162000252565b805181602001fd5b6001600160e01b031916630a85bd0160e11b1490506200077e565b5060015b949350505050565b600181111562000810576001600160a01b03841615620007d0576001600160a01b03841660009081526003602052604081208054839290620007ca908490620009e3565b90915550505b6001600160a01b0383161562000810576001600160a01b038316600090815260036020526040812080548392906200080a908490620009fd565b90915550505b50505050565b6001600160a01b03163b151590565b828054620008339062000a18565b90600052602060002090601f016020900481019282620008575760008555620008a2565b82601f106200087257805160ff1916838001178555620008a2565b82800160010185558215620008a2579182015b82811115620008a257825182559160200191906001019062000885565b50620008b0929150620008b4565b5090565b5b80821115620008b05760008155600101620008b5565b600060208284031215620008de57600080fd5b81516001600160a01b0381168114620008f657600080fd5b9392505050565b6000815180845260005b81811015620009255760208185018101518683018201520162000907565b8181111562000938576000602083870101525b50601f01601f19169290920160200192915050565b602081526000620008f66020830184620008fd565b6001600160a01b03858116825284166020820152604081018390526080606082018190526000906200099790830184620008fd565b9695505050505050565b600060208284031215620009b457600080fd5b81516001600160e01b031981168114620008f657600080fd5b634e487b7160e01b600052601160045260246000fd5b600082821015620009f857620009f8620009cd565b500390565b6000821982111562000a135762000a13620009cd565b500190565b600181811c9082168062000a2d57607f821691505b6020821081141562000a4f57634e487b7160e01b600052602260045260246000fd5b50919050565b6129538062000a656000396000f3fe608060405234801561001057600080fd5b506004361061018e5760003560e01c80636352211e116100de578063b88d4fde11610097578063d41d9a2711610071578063d41d9a271461039d578063d45dfd78146103b0578063d547741f146103c3578063e985e9c5146103d657600080fd5b8063b88d4fde14610357578063c87b56dd1461036a578063d3a8f9721461037d57600080fd5b80636352211e146102fb57806370a082311461030e57806391d148541461032157806395d89b4114610334578063a217fddf1461033c578063a22cb4651461034457600080fd5b80631547d0c01161014b578063248a9ca311610125578063248a9ca31461029f5780632f2ff15d146102c257806336568abe146102d557806342842e0e146102e857600080fd5b80631547d0c01461023657806318cf28341461025757806323b872dd1461028c57600080fd5b806301ffc9a714610193578063046e30da146101bb57806306fdde03146101d0578063081812fc146101e5578063095ea7b3146102105780630f4e342314610223575b600080fd5b6101a66101a136600461218e565b610412565b60405190151581526020015b60405180910390f35b6101ce6101c9366004612257565b610423565b005b6101d861061d565b6040516101b291906122e4565b6101f86101f33660046122f7565b6106af565b6040516001600160a01b0390911681526020016101b2565b6101ce61021e36600461232c565b6106d6565b6101ce610231366004612356565b6107ec565b610249610244366004612257565b6109b4565b6040516101b29291906123c3565b61027e7fa8a7bc421f721cb936ea99efdad79237e6ee0b871a2a08cf648691f9584cdc7781565b6040519081526020016101b2565b6101ce61029a3660046123dc565b610c2d565b61027e6102ad3660046122f7565b60009081526006602052604090206001015490565b6101ce6102d0366004612418565b610c5e565b6101ce6102e3366004612418565b610c83565b6101ce6102f63660046123dc565b610d01565b6101f86103093660046122f7565b610d1c565b61027e61031c366004612444565b610d7c565b6101a661032f366004612418565b610e02565b6101d8610e2d565b61027e600081565b6101ce61035236600461245f565b610e3c565b6101ce61036536600461249b565b610e47565b6101d86103783660046122f7565b610e7f565b61039061038b366004612257565b610ef3565b6040516101b29190612517565b6101ce6103ab366004612356565b6110ff565b6101ce6103be36600461258b565b6112ff565b6101ce6103d1366004612418565b611486565b6101a66103e43660046125d0565b6001600160a01b03918216600090815260056020908152604080832093909416825291909152205460ff1690565b600061041d826114ba565b92915050565b600a60008260405160200161043891906122e4565b60405160208183030381529060405280519060200120815260200190815260200160002054600014156104865760405162461bcd60e51b815260040161047d906125fa565b60405180910390fd5b6000600a60008360405160200161049d91906122e4565b604051602081830303815290604052805190602001208152602001908152602001600020549050336001600160a01b0316600882815481106104e1576104e1612629565b60009182526020909120600690910201546001600160a01b0316146105485760405162461bcd60e51b815260206004820152601f60248201527f4f6e6c7920746865206f776e65722063616e207265706f727420666f756e6400604482015260640161047d565b6008818154811061055b5761055b612629565b600091825260209091206004600690920201015460ff1615156001146105b85760405162461bcd60e51b815260206004820152601260248201527111195d9a58d9481a5cc81b9bdd081b1bdcdd60721b604482015260640161047d565b6000600882815481106105cd576105cd612629565b60009182526020822060069190910201600401805460ff191692151592909217909155600880548390811061060457610604612629565b9060005260206000209060060201600501819055505050565b60606000805461062c9061263f565b80601f01602080910402602001604051908101604052809291908181526020018280546106589061263f565b80156106a55780601f1061067a576101008083540402835291602001916106a5565b820191906000526020600020905b81548152906001019060200180831161068857829003601f168201915b5050505050905090565b60006106ba826114df565b506000908152600460205260409020546001600160a01b031690565b60006106e182610d1c565b9050806001600160a01b0316836001600160a01b0316141561074f5760405162461bcd60e51b815260206004820152602160248201527f4552433732313a20617070726f76616c20746f2063757272656e74206f776e656044820152603960f91b606482015260840161047d565b336001600160a01b038216148061076b575061076b81336103e4565b6107dd5760405162461bcd60e51b815260206004820152603d60248201527f4552433732313a20617070726f76652063616c6c6572206973206e6f7420746f60448201527f6b656e206f776e6572206f7220617070726f76656420666f7220616c6c000000606482015260840161047d565b6107e78383611541565b505050565b7fa8a7bc421f721cb936ea99efdad79237e6ee0b871a2a08cf648691f9584cdc77610816816115af565b600a60008560405160200161082b91906122e4565b60405160208183030381529060405280519060200120815260200190815260200160002054600014156108705760405162461bcd60e51b815260040161047d906125fa565b6000600a60008660405160200161088791906122e4565b6040516020818303038152906040528051906020012081526020019081526020016000205490506000600882815481106108c3576108c3612629565b60009182526020808320604080518082019091528881528083018a8152600160069095029092018401805480860182558187529584902082516002909702019586559151805192965090949361091f93908501929101906120df565b5050506008828154811061093557610935612629565b600091825260209091206004600690920201015460ff161515600114156109ac576008828154811061096957610969612629565b600091825260208220600690910201546040516001600160a01b03909116917f5dc0adb7d0483fe1e64e48115c05dc52910421b14afe9049758b32cd158d5f8d91a25b505050505050565b60006060600a6000846040516020016109cd91906122e4565b6040516020818303038152906040528051906020012081526020019081526020016000205460001415610a125760405162461bcd60e51b815260040161047d906125fa565b6000600a600085604051602001610a2991906122e4565b604051602081830303815290604052805190602001208152602001908152602001600020549050336001600160a01b031660088281548110610a6d57610a6d612629565b60009182526020909120600690910201546001600160a01b031614610aa45760405162461bcd60e51b815260040161047d9061267a565b60088181548110610ab757610ab7612629565b9060005260206000209060060201600101600160088381548110610add57610add612629565b906000526020600020906006020160010180549050610afc91906126d6565b81548110610b0c57610b0c612629565b90600052602060002090600202016000015460088281548110610b3157610b31612629565b9060005260206000209060060201600101600160088481548110610b5757610b57612629565b906000526020600020906006020160010180549050610b7691906126d6565b81548110610b8657610b86612629565b9060005260206000209060020201600101808054610ba39061263f565b80601f0160208091040260200160405190810160405280929190818152602001828054610bcf9061263f565b8015610c1c5780601f10610bf157610100808354040283529160200191610c1c565b820191906000526020600020905b815481529060010190602001808311610bff57829003601f168201915b505050505090509250925050915091565b610c3733826115b9565b610c535760405162461bcd60e51b815260040161047d906126ed565b6107e7838383611638565b600082815260066020526040902060010154610c79816115af565b6107e783836117a9565b6001600160a01b0381163314610cf35760405162461bcd60e51b815260206004820152602f60248201527f416363657373436f6e74726f6c3a2063616e206f6e6c792072656e6f756e636560448201526e103937b632b9903337b91039b2b63360891b606482015260840161047d565b610cfd828261182f565b5050565b6107e783838360405180602001604052806000815250610e47565b6000818152600260205260408120546001600160a01b03168061041d5760405162461bcd60e51b8152602060048201526018602482015277115490cdcc8c4e881a5b9d985b1a59081d1bdad95b88125160421b604482015260640161047d565b60006001600160a01b038216610de65760405162461bcd60e51b815260206004820152602960248201527f4552433732313a2061646472657373207a65726f206973206e6f7420612076616044820152683634b21037bbb732b960b91b606482015260840161047d565b506001600160a01b031660009081526003602052604090205490565b60009182526006602090815260408084206001600160a01b0393909316845291905290205460ff1690565b60606001805461062c9061263f565b610cfd338383611896565b610e5133836115b9565b610e6d5760405162461bcd60e51b815260040161047d906126ed565b610e7984848484611965565b50505050565b6060610e8a826114df565b6000610ea160408051602081019091526000815290565b90506000815111610ec15760405180602001604052806000815250610eec565b80610ecb84611998565b604051602001610edc92919061273a565b6040516020818303038152906040525b9392505050565b6060600a600083604051602001610f0a91906122e4565b6040516020818303038152906040528051906020012081526020019081526020016000205460001415610f4f5760405162461bcd60e51b815260040161047d906125fa565b6000600a600084604051602001610f6691906122e4565b604051602081830303815290604052805190602001208152602001908152602001600020549050336001600160a01b031660088281548110610faa57610faa612629565b60009182526020909120600690910201546001600160a01b031614610fe15760405162461bcd60e51b815260040161047d9061267a565b60088181548110610ff457610ff4612629565b9060005260206000209060060201600101805480602002602001604051908101604052809291908181526020016000905b828210156110f35783829060005260206000209060020201604051806040016040529081600082015481526020016001820180546110629061263f565b80601f016020809104026020016040519081016040528092919081815260200182805461108e9061263f565b80156110db5780601f106110b0576101008083540402835291602001916110db565b820191906000526020600020905b8154815290600101906020018083116110be57829003601f168201915b50505050508152505081526020019060010190611025565b50505050915050919050565b600a60008460405160200161111491906122e4565b604051602081830303815290604052805190602001208152602001908152602001600020546000146111805760405162461bcd60e51b815260206004820152601560248201527444657669636520616c72656164792065786973747360581b604482015260640161047d565b6008546040518190600a9060009061119c9088906020016122e4565b60408051808303601f190181529181528151602092830120835282820193909352908201600090812093909355600880546001808201909255835180850190945286845283830188815260069091027ff3f7a9fe364faab93b216da50a3214154f22a0a2b415b23a84c8169e8b636ee4810180548085018255908752958490208551600290970201958655905180517ff3f7a9fe364faab93b216da50a3214154f22a0a2b415b23a84c8169e8b636ee39092019593611260938501929101906120df565b505081546001600160a01b03191633178255506002810182905560405161128b9086906020016122e4565b60408051601f198184030181529190528051602090910120600382015560048101805460ff191690556000600582018190556009805460018101825591527f6e1540171b6c0c960b71a7020d9f60077f6af931a8bbf590da0223dacf75c7af018290556112f83383611a35565b5050505050565b600a60008360405160200161131491906122e4565b60405160208183030381529060405280519060200120815260200190815260200160002054600014156113595760405162461bcd60e51b815260040161047d906125fa565b6000600a60008460405160200161137091906122e4565b604051602081830303815290604052805190602001208152602001908152602001600020549050336001600160a01b0316600882815481106113b4576113b4612629565b60009182526020909120600690910201546001600160a01b03161461141b5760405162461bcd60e51b815260206004820152601e60248201527f4f6e6c7920746865206f776e65722063616e207265706f7274206c6f73740000604482015260640161047d565b60016008828154811061143057611430612629565b906000526020600020906006020160040160006101000a81548160ff021916908315150217905550816008828154811061146c5761146c612629565b906000526020600020906006020160050181905550505050565b6000828152600660205260409020600101546114a1816115af565b6107e7838361182f565b6001600160a01b03163b151590565b60006001600160e01b03198216637965db0b60e01b148061041d575061041d82611a4f565b6000818152600260205260409020546001600160a01b031661153e5760405162461bcd60e51b8152602060048201526018602482015277115490cdcc8c4e881a5b9d985b1a59081d1bdad95b88125160421b604482015260640161047d565b50565b600081815260046020526040902080546001600160a01b0319166001600160a01b038416908117909155819061157682610d1c565b6001600160a01b03167f8c5be1e5ebec7d5bd14f71427d1e84f3dd0314c0f7b2291e5b200ac8c7c3b92560405160405180910390a45050565b61153e8133611a9f565b6000806115c583610d1c565b9050806001600160a01b0316846001600160a01b0316148061160c57506001600160a01b0380821660009081526005602090815260408083209388168352929052205460ff165b806116305750836001600160a01b0316611625846106af565b6001600160a01b0316145b949350505050565b826001600160a01b031661164b82610d1c565b6001600160a01b0316146116715760405162461bcd60e51b815260040161047d90612769565b6001600160a01b0382166116d35760405162461bcd60e51b8152602060048201526024808201527f4552433732313a207472616e7366657220746f20746865207a65726f206164646044820152637265737360e01b606482015260840161047d565b6116e08383836001611af8565b826001600160a01b03166116f382610d1c565b6001600160a01b0316146117195760405162461bcd60e51b815260040161047d90612769565b600081815260046020908152604080832080546001600160a01b03199081169091556001600160a01b0387811680865260038552838620805460001901905590871680865283862080546001019055868652600290945282852080549092168417909155905184937fddf252ad1be2c89b69c2b068fc378daa952ba7f163c4a11628f55a4df523b3ef91a4505050565b6117b38282610e02565b610cfd5760008281526006602090815260408083206001600160a01b03851684529091529020805460ff191660011790556117eb3390565b6001600160a01b0316816001600160a01b0316837f2f8788117e7eff1d82e926ec794901d17c78024a50270940304540a733656f0d60405160405180910390a45050565b6118398282610e02565b15610cfd5760008281526006602090815260408083206001600160a01b0385168085529252808320805460ff1916905551339285917ff6391f5c32d9c69d2a47ea670b442974b53935d1edc7fd64eb21e047a839171b9190a45050565b816001600160a01b0316836001600160a01b031614156118f85760405162461bcd60e51b815260206004820152601960248201527f4552433732313a20617070726f766520746f2063616c6c657200000000000000604482015260640161047d565b6001600160a01b03838116600081815260056020908152604080832094871680845294825291829020805460ff191686151590811790915591519182527f17307eab39ab6107e8899845ad3d59bd9653f200f220920489ca2b5937696c31910160405180910390a3505050565b611970848484611638565b61197c84848484611b80565b610e795760405162461bcd60e51b815260040161047d906127ae565b606060006119a583611c8d565b600101905060008167ffffffffffffffff8111156119c5576119c56121ab565b6040519080825280601f01601f1916602001820160405280156119ef576020820181803683370190505b5090508181016020015b600019016f181899199a1a9b1b9c1cb0b131b232b360811b600a86061a8153600a8504945084611a2857611a2d565b6119f9565b509392505050565b610cfd828260405180602001604052806000815250611d65565b60006001600160e01b031982166380ac58cd60e01b1480611a8057506001600160e01b03198216635b5e139f60e01b145b8061041d57506301ffc9a760e01b6001600160e01b031983161461041d565b611aa98282610e02565b610cfd57611ab681611d98565b611ac1836020611daa565b604051602001611ad2929190612800565b60408051601f198184030181529082905262461bcd60e51b825261047d916004016122e4565b6001811115610e79576001600160a01b03841615611b3e576001600160a01b03841660009081526003602052604081208054839290611b389084906126d6565b90915550505b6001600160a01b03831615610e79576001600160a01b03831660009081526003602052604081208054839290611b75908490612875565b909155505050505050565b60006001600160a01b0384163b15611c8257604051630a85bd0160e11b81526001600160a01b0385169063150b7a0290611bc490339089908890889060040161288d565b602060405180830381600087803b158015611bde57600080fd5b505af1925050508015611c0e575060408051601f3d908101601f19168201909252611c0b918101906128ca565b60015b611c68573d808015611c3c576040519150601f19603f3d011682016040523d82523d6000602084013e611c41565b606091505b508051611c605760405162461bcd60e51b815260040161047d906127ae565b805181602001fd5b6001600160e01b031916630a85bd0160e11b149050611630565b506001949350505050565b60008072184f03e93ff9f4daa797ed6e38ed64bf6a1f0160401b8310611ccc5772184f03e93ff9f4daa797ed6e38ed64bf6a1f0160401b830492506040015b6d04ee2d6d415b85acef81000000008310611cf8576d04ee2d6d415b85acef8100000000830492506020015b662386f26fc100008310611d1657662386f26fc10000830492506010015b6305f5e1008310611d2e576305f5e100830492506008015b6127108310611d4257612710830492506004015b60648310611d54576064830492506002015b600a831061041d5760010192915050565b611d6f8383611f46565b611d7c6000848484611b80565b6107e75760405162461bcd60e51b815260040161047d906127ae565b606061041d6001600160a01b03831660145b60606000611db98360026128e7565b611dc4906002612875565b67ffffffffffffffff811115611ddc57611ddc6121ab565b6040519080825280601f01601f191660200182016040528015611e06576020820181803683370190505b509050600360fc1b81600081518110611e2157611e21612629565b60200101906001600160f81b031916908160001a905350600f60fb1b81600181518110611e5057611e50612629565b60200101906001600160f81b031916908160001a9053506000611e748460026128e7565b611e7f906001612875565b90505b6001811115611ef7576f181899199a1a9b1b9c1cb0b131b232b360811b85600f1660108110611eb357611eb3612629565b1a60f81b828281518110611ec957611ec9612629565b60200101906001600160f81b031916908160001a90535060049490941c93611ef081612906565b9050611e82565b508315610eec5760405162461bcd60e51b815260206004820181905260248201527f537472696e67733a20686578206c656e67746820696e73756666696369656e74604482015260640161047d565b6001600160a01b038216611f9c5760405162461bcd60e51b815260206004820181905260248201527f4552433732313a206d696e7420746f20746865207a65726f2061646472657373604482015260640161047d565b6000818152600260205260409020546001600160a01b0316156120015760405162461bcd60e51b815260206004820152601c60248201527f4552433732313a20746f6b656e20616c7265616479206d696e74656400000000604482015260640161047d565b61200f600083836001611af8565b6000818152600260205260409020546001600160a01b0316156120745760405162461bcd60e51b815260206004820152601c60248201527f4552433732313a20746f6b656e20616c7265616479206d696e74656400000000604482015260640161047d565b6001600160a01b038216600081815260036020908152604080832080546001019055848352600290915280822080546001600160a01b0319168417905551839291907fddf252ad1be2c89b69c2b068fc378daa952ba7f163c4a11628f55a4df523b3ef908290a45050565b8280546120eb9061263f565b90600052602060002090601f01602090048101928261210d5760008555612153565b82601f1061212657805160ff1916838001178555612153565b82800160010185558215612153579182015b82811115612153578251825591602001919060010190612138565b5061215f929150612163565b5090565b5b8082111561215f5760008155600101612164565b6001600160e01b03198116811461153e57600080fd5b6000602082840312156121a057600080fd5b8135610eec81612178565b634e487b7160e01b600052604160045260246000fd5b600067ffffffffffffffff808411156121dc576121dc6121ab565b604051601f8501601f19908116603f01168101908282118183101715612204576122046121ab565b8160405280935085815286868601111561221d57600080fd5b858560208301376000602087830101525050509392505050565b600082601f83011261224857600080fd5b610eec838335602085016121c1565b60006020828403121561226957600080fd5b813567ffffffffffffffff81111561228057600080fd5b61163084828501612237565b60005b838110156122a757818101518382015260200161228f565b83811115610e795750506000910152565b600081518084526122d081602086016020860161228c565b601f01601f19169290920160200192915050565b602081526000610eec60208301846122b8565b60006020828403121561230957600080fd5b5035919050565b80356001600160a01b038116811461232757600080fd5b919050565b6000806040838503121561233f57600080fd5b61234883612310565b946020939093013593505050565b60008060006060848603121561236b57600080fd5b833567ffffffffffffffff8082111561238357600080fd5b61238f87838801612237565b945060208601359150808211156123a557600080fd5b506123b286828701612237565b925050604084013590509250925092565b82815260406020820152600061163060408301846122b8565b6000806000606084860312156123f157600080fd5b6123fa84612310565b925061240860208501612310565b9150604084013590509250925092565b6000806040838503121561242b57600080fd5b8235915061243b60208401612310565b90509250929050565b60006020828403121561245657600080fd5b610eec82612310565b6000806040838503121561247257600080fd5b61247b83612310565b91506020830135801515811461249057600080fd5b809150509250929050565b600080600080608085870312156124b157600080fd5b6124ba85612310565b93506124c860208601612310565b925060408501359150606085013567ffffffffffffffff8111156124eb57600080fd5b8501601f810187136124fc57600080fd5b61250b878235602084016121c1565b91505092959194509250565b60006020808301818452808551808352604092508286019150828160051b87010184880160005b8381101561257d57888303603f1901855281518051845287015187840187905261256a878501826122b8565b958801959350509086019060010161253e565b509098975050505050505050565b6000806040838503121561259e57600080fd5b823567ffffffffffffffff8111156125b557600080fd5b6125c185828601612237565b95602094909401359450505050565b600080604083850312156125e357600080fd5b6125ec83612310565b915061243b60208401612310565b60208082526015908201527411195d9a58d948191bd95cc81b9bdd08195e1a5cdd605a1b604082015260600190565b634e487b7160e01b600052603260045260246000fd5b600181811c9082168061265357607f821691505b6020821081141561267457634e487b7160e01b600052602260045260246000fd5b50919050565b60208082526026908201527f4f6e6c7920746865206f776e65722063616e2067657420646576696365206c6f60408201526531b0ba34b7b760d11b606082015260800190565b634e487b7160e01b600052601160045260246000fd5b6000828210156126e8576126e86126c0565b500390565b6020808252602d908201527f4552433732313a2063616c6c6572206973206e6f7420746f6b656e206f776e6560408201526c1c881bdc88185c1c1c9bdd9959609a1b606082015260800190565b6000835161274c81846020880161228c565b83519083019061276081836020880161228c565b01949350505050565b60208082526025908201527f4552433732313a207472616e736665722066726f6d20696e636f72726563742060408201526437bbb732b960d91b606082015260800190565b60208082526032908201527f4552433732313a207472616e7366657220746f206e6f6e20455243373231526560408201527131b2b4bb32b91034b6b83632b6b2b73a32b960711b606082015260800190565b7f416363657373436f6e74726f6c3a206163636f756e742000000000000000000081526000835161283881601785016020880161228c565b7001034b99036b4b9b9b4b733903937b6329607d1b601791840191820152835161286981602884016020880161228c565b01602801949350505050565b60008219821115612888576128886126c0565b500190565b6001600160a01b03858116825284166020820152604081018390526080606082018190526000906128c0908301846122b8565b9695505050505050565b6000602082840312156128dc57600080fd5b8151610eec81612178565b6000816000190483118215151615612901576129016126c0565b500290565b600081612915576129156126c0565b50600019019056fea2646970667358221220332780030a7e5e5c77085db0ea9d2c1d421f224e5e471edadcd8bdb0a59d441e64736f6c634300080900334552433732313a207472616e7366657220746f206e6f6e204552433732315265",
  "immutableReferences": {},
  "source": "// SPDX-License-Identifier: MIT\r\npragma solidity ^0.8.0;\r\n\r\nimport \"@openzeppelin/contracts/token/ERC721/ERC721.sol\";\r\nimport \"@openzeppelin/contracts/access/AccessControl.sol\";\r\n\r\ncontract WheresMyNFT is ERC721, AccessControl {\r\n    bytes32 public constant SERVER_ROLE = keccak256(\"SERVER_ROLE\");\r\n\r\n    struct LocationData {\r\n        uint256 timestamp;\r\n        string locationCode;\r\n    }\r\n\r\n    struct NFTData {\r\n        address owner;\r\n        LocationData[] metadata;\r\n        uint256 nftTokenId;\r\n        bytes32 deviceHash;\r\n        bool isLost;\r\n        uint256 lostTimestamp;\r\n    }\r\n\r\n    uint256 tokenIdCounter;\r\n\r\n    NFTData[] private nftData;\r\n    uint256[] private tokenIdArray;\r\n    mapping(bytes32 => uint256) private deviceHashMap;\r\n\r\n    event FoundLostDevice(\r\n        address indexed owner\r\n    );\r\n\r\n    constructor(address serverAddress) ERC721(\"WheresMyNFT\", \"WMNFT\") {\r\n        _grantRole(DEFAULT_ADMIN_ROLE, msg.sender);\r\n        _grantRole(SERVER_ROLE, serverAddress);\r\n        mint(\"0\", \"0\", 0);\r\n    }\r\n\r\n    function mint(\r\n        string memory _deviceHash,\r\n        string memory _locationCode,\r\n        uint256 _timestamp\r\n    ) public {\r\n        require(\r\n            deviceHashMap[keccak256(abi.encode(_deviceHash))] == 0,\r\n            \"Device already exists\"\r\n        );\r\n        uint256 tokenId = nftData.length;\r\n        deviceHashMap[keccak256(abi.encode(_deviceHash))] = tokenId;\r\n        // Create NFT First and Push Location Data to LocationData Array in the NFT\r\n        NFTData storage deviceNft = nftData.push();\r\n        deviceNft.metadata.push(LocationData(_timestamp, _locationCode));\r\n        deviceNft.owner = msg.sender;\r\n        deviceNft.nftTokenId = tokenId;\r\n        deviceNft.deviceHash = keccak256(abi.encode(_deviceHash));\r\n        deviceNft.isLost = false;\r\n        deviceNft.lostTimestamp = 0;\r\n        tokenIdArray.push(tokenId);\r\n        _safeMint(msg.sender, tokenId);\r\n    }\r\n\r\n    function reportLost(string memory _deviceHash, uint256 _lostTimestamp)\r\n        public\r\n    {\r\n        require(\r\n            deviceHashMap[keccak256(abi.encode(_deviceHash))] != 0,\r\n            \"Device does not exist\"\r\n        );\r\n        uint256 _tokenId = deviceHashMap[keccak256(abi.encode(_deviceHash))];\r\n        require(\r\n            nftData[_tokenId].owner == msg.sender,\r\n            \"Only the owner can report lost\"\r\n        );\r\n        nftData[_tokenId].isLost = true;\r\n        nftData[_tokenId].lostTimestamp = _lostTimestamp;\r\n    }\r\n\r\n    function reportFound(string memory _deviceHash) public {\r\n        require(\r\n            deviceHashMap[keccak256(abi.encode(_deviceHash))] != 0,\r\n            \"Device does not exist\"\r\n        );\r\n        uint256 _tokenId = deviceHashMap[keccak256(abi.encode(_deviceHash))];\r\n        require(\r\n            nftData[_tokenId].owner == msg.sender,\r\n            \"Only the owner can report found\"\r\n        );\r\n        require(nftData[_tokenId].isLost == true, \"Device is not lost\");\r\n        nftData[_tokenId].isLost = false;\r\n        nftData[_tokenId].lostTimestamp = 0;\r\n    }\r\n\r\n    function foundDevicePing(\r\n        string memory _deviceHash,\r\n        string memory _locationCode,\r\n        uint256 _timestamp\r\n    ) public onlyRole(SERVER_ROLE) {\r\n        require(\r\n            deviceHashMap[keccak256(abi.encode(_deviceHash))] != 0,\r\n            \"Device does not exist\"\r\n        );\r\n        uint256 _tokenId = deviceHashMap[keccak256(abi.encode(_deviceHash))];\r\n        LocationData[] storage locationDataArray = nftData[_tokenId].metadata;\r\n        locationDataArray.push(LocationData(_timestamp, _locationCode));\r\n        if(nftData[_tokenId].isLost == true) {\r\n            emit FoundLostDevice(nftData[_tokenId].owner);\r\n        }\r\n    }\r\n\r\n    function getLatestDeviceLocation(string memory _deviceHash)\r\n        public\r\n        view\r\n        returns (uint256, string memory)\r\n    {\r\n        require(\r\n            deviceHashMap[keccak256(abi.encode(_deviceHash))] != 0,\r\n            \"Device does not exist\"\r\n        );\r\n        uint256 _tokenId = deviceHashMap[keccak256(abi.encode(_deviceHash))];\r\n        require(\r\n            nftData[_tokenId].owner == msg.sender,\r\n            \"Only the owner can get device location\"\r\n        );\r\n        return (\r\n            nftData[_tokenId]\r\n                .metadata[nftData[_tokenId].metadata.length - 1]\r\n                .timestamp,\r\n            nftData[_tokenId]\r\n                .metadata[nftData[_tokenId].metadata.length - 1]\r\n                .locationCode\r\n        );\r\n    }\r\n\r\n    function getLocationHistory(string memory _deviceHash)\r\n        public\r\n        view\r\n        returns (LocationData[] memory)\r\n    {\r\n        require(\r\n            deviceHashMap[keccak256(abi.encode(_deviceHash))] != 0,\r\n            \"Device does not exist\"\r\n        );\r\n        uint256 _tokenId = deviceHashMap[keccak256(abi.encode(_deviceHash))];\r\n        require(\r\n            nftData[_tokenId].owner == msg.sender,\r\n            \"Only the owner can get device location\"\r\n        );\r\n        return nftData[_tokenId].metadata;\r\n    }\r\n\r\n    function supportsInterface(bytes4 interfaceId)\r\n        public\r\n        view\r\n        override(ERC721, AccessControl)\r\n        returns (bool)\r\n    {\r\n        return super.supportsInterface(interfaceId);\r\n    }\r\n}\r\n",
  "sourcePath": "E:\\projects\\WheresMy\\WheresMyNFT-Contract\\contracts\\WheresMyNFT.sol",
  "compiler": {
    "name": "solc",
    "version": "0.8.9+commit.e5eed63a.Emscripten.clang"
  },
  "schemaVersion": "3.4.6",
  "updatedAt": "2023-02-16T22:13:35.164Z",
  "devdoc": {
    "kind": "dev",
    "methods": {
      "approve(address,uint256)": {
        "details": "See {IERC721-approve}."
      },
      "balanceOf(address)": {
        "details": "See {IERC721-balanceOf}."
      },
      "getApproved(uint256)": {
        "details": "See {IERC721-getApproved}."
      },
      "getRoleAdmin(bytes32)": {
        "details": "Returns the admin role that controls `role`. See {grantRole} and {revokeRole}. To change a role's admin, use {_setRoleAdmin}."
      },
      "grantRole(bytes32,address)": {
        "details": "Grants `role` to `account`. If `account` had not been already granted `role`, emits a {RoleGranted} event. Requirements: - the caller must have ``role``'s admin role. May emit a {RoleGranted} event."
      },
      "hasRole(bytes32,address)": {
        "details": "Returns `true` if `account` has been granted `role`."
      },
      "isApprovedForAll(address,address)": {
        "details": "See {IERC721-isApprovedForAll}."
      },
      "name()": {
        "details": "See {IERC721Metadata-name}."
      },
      "ownerOf(uint256)": {
        "details": "See {IERC721-ownerOf}."
      },
      "renounceRole(bytes32,address)": {
        "details": "Revokes `role` from the calling account. Roles are often managed via {grantRole} and {revokeRole}: this function's purpose is to provide a mechanism for accounts to lose their privileges if they are compromised (such as when a trusted device is misplaced). If the calling account had been revoked `role`, emits a {RoleRevoked} event. Requirements: - the caller must be `account`. May emit a {RoleRevoked} event."
      },
      "revokeRole(bytes32,address)": {
        "details": "Revokes `role` from `account`. If `account` had been granted `role`, emits a {RoleRevoked} event. Requirements: - the caller must have ``role``'s admin role. May emit a {RoleRevoked} event."
      },
      "safeTransferFrom(address,address,uint256)": {
        "details": "See {IERC721-safeTransferFrom}."
      },
      "safeTransferFrom(address,address,uint256,bytes)": {
        "details": "See {IERC721-safeTransferFrom}."
      },
      "setApprovalForAll(address,bool)": {
        "details": "See {IERC721-setApprovalForAll}."
      },
      "symbol()": {
        "details": "See {IERC721Metadata-symbol}."
      },
      "tokenURI(uint256)": {
        "details": "See {IERC721Metadata-tokenURI}."
      },
      "transferFrom(address,address,uint256)": {
        "details": "See {IERC721-transferFrom}."
      }
    },
    "version": 1
  },
  "userdoc": {
    "kind": "user",
    "methods": {},
    "version": 1
  }
}